{
  "contractName": "ResourceRegistration",
  "abi": [
    {
      "anonymous": false,
      "inputs": [
        {
          "indexed": true,
          "internalType": "uint256",
          "name": "resourceId",
          "type": "uint256"
        },
        {
          "indexed": false,
          "internalType": "bool",
          "name": "available",
          "type": "bool"
        }
      ],
      "name": "ResourceAvailabilityChanged",
      "type": "event"
    },
    {
      "anonymous": false,
      "inputs": [
        {
          "indexed": true,
          "internalType": "uint256",
          "name": "resourceId",
          "type": "uint256"
        }
      ],
      "name": "ResourceDeregistered",
      "type": "event"
    },
    {
      "anonymous": false,
      "inputs": [
        {
          "indexed": true,
          "internalType": "uint256",
          "name": "resourceId",
          "type": "uint256"
        },
        {
          "indexed": true,
          "internalType": "address",
          "name": "provider",
          "type": "address"
        }
      ],
      "name": "ResourceRegistered",
      "type": "event"
    },
    {
      "anonymous": false,
      "inputs": [
        {
          "indexed": true,
          "internalType": "uint256",
          "name": "resourceId",
          "type": "uint256"
        }
      ],
      "name": "ResourceUpdated",
      "type": "event"
    },
    {
      "inputs": [],
      "name": "nextResourceId",
      "outputs": [
        {
          "internalType": "uint256",
          "name": "",
          "type": "uint256"
        }
      ],
      "stateMutability": "view",
      "type": "function",
      "constant": true
    },
    {
      "inputs": [
        {
          "internalType": "uint256",
          "name": "",
          "type": "uint256"
        }
      ],
      "name": "resourceToOwner",
      "outputs": [
        {
          "internalType": "address",
          "name": "",
          "type": "address"
        }
      ],
      "stateMutability": "view",
      "type": "function",
      "constant": true
    },
    {
      "inputs": [
        {
          "internalType": "uint256",
          "name": "",
          "type": "uint256"
        }
      ],
      "name": "resources",
      "outputs": [
        {
          "internalType": "uint256",
          "name": "id",
          "type": "uint256"
        },
        {
          "internalType": "address",
          "name": "provider",
          "type": "address"
        },
        {
          "internalType": "string",
          "name": "resourceType",
          "type": "string"
        },
        {
          "internalType": "uint256",
          "name": "capacity",
          "type": "uint256"
        },
        {
          "internalType": "uint256",
          "name": "vCPU",
          "type": "uint256"
        },
        {
          "internalType": "uint256",
          "name": "pricePerHour",
          "type": "uint256"
        },
        {
          "internalType": "bool",
          "name": "available",
          "type": "bool"
        }
      ],
      "stateMutability": "view",
      "type": "function",
      "constant": true
    },
    {
      "inputs": [
        {
          "internalType": "string",
          "name": "_resourceType",
          "type": "string"
        },
        {
          "internalType": "uint256",
          "name": "_capacity",
          "type": "uint256"
        },
        {
          "internalType": "uint256",
          "name": "_vCPU",
          "type": "uint256"
        },
        {
          "internalType": "uint256",
          "name": "_pricePerHour",
          "type": "uint256"
        }
      ],
      "name": "registerResource",
      "outputs": [],
      "stateMutability": "nonpayable",
      "type": "function"
    },
    {
      "inputs": [
        {
          "internalType": "uint256",
          "name": "_resourceId",
          "type": "uint256"
        },
        {
          "internalType": "string",
          "name": "_resourceType",
          "type": "string"
        },
        {
          "internalType": "uint256",
          "name": "_capacity",
          "type": "uint256"
        },
        {
          "internalType": "uint256",
          "name": "_vCPU",
          "type": "uint256"
        },
        {
          "internalType": "uint256",
          "name": "_pricePerHour",
          "type": "uint256"
        },
        {
          "internalType": "bool",
          "name": "_available",
          "type": "bool"
        }
      ],
      "name": "updateResource",
      "outputs": [],
      "stateMutability": "nonpayable",
      "type": "function"
    },
    {
      "inputs": [
        {
          "internalType": "uint256",
          "name": "_resourceId",
          "type": "uint256"
        }
      ],
      "name": "deregisterResource",
      "outputs": [],
      "stateMutability": "nonpayable",
      "type": "function"
    },
    {
      "inputs": [
        {
          "internalType": "uint256",
          "name": "_resourceId",
          "type": "uint256"
        },
        {
          "internalType": "bool",
          "name": "_available",
          "type": "bool"
        }
      ],
      "name": "setResourceAvailability",
      "outputs": [],
      "stateMutability": "nonpayable",
      "type": "function"
    },
    {
      "inputs": [
        {
          "internalType": "uint256",
          "name": "_resourceId",
          "type": "uint256"
        },
        {
          "internalType": "uint256",
          "name": "_hours",
          "type": "uint256"
        }
      ],
      "name": "estimateRentCost",
      "outputs": [
        {
          "internalType": "uint256",
          "name": "",
          "type": "uint256"
        }
      ],
      "stateMutability": "view",
      "type": "function",
      "constant": true
    },
    {
      "inputs": [],
      "name": "getTotalResources",
      "outputs": [
        {
          "internalType": "uint256",
          "name": "",
          "type": "uint256"
        }
      ],
      "stateMutability": "view",
      "type": "function",
      "constant": true
    },
    {
      "inputs": [
        {
          "internalType": "uint256",
          "name": "_resourceId",
          "type": "uint256"
        }
      ],
      "name": "getResourceById",
      "outputs": [
        {
          "components": [
            {
              "internalType": "uint256",
              "name": "id",
              "type": "uint256"
            },
            {
              "internalType": "address",
              "name": "provider",
              "type": "address"
            },
            {
              "internalType": "string",
              "name": "resourceType",
              "type": "string"
            },
            {
              "internalType": "uint256",
              "name": "capacity",
              "type": "uint256"
            },
            {
              "internalType": "uint256",
              "name": "vCPU",
              "type": "uint256"
            },
            {
              "internalType": "uint256",
              "name": "pricePerHour",
              "type": "uint256"
            },
            {
              "internalType": "bool",
              "name": "available",
              "type": "bool"
            }
          ],
          "internalType": "struct ResourceRegistration.Resource",
          "name": "",
          "type": "tuple"
        }
      ],
      "stateMutability": "view",
      "type": "function",
      "constant": true
    }
  ],
  "bytecode": "0x6080604052600060025534801561001557600080fd5b5061188a806100256000396000f3fe608060405234801561001057600080fd5b506004361061009e5760003560e01c8063c3f8a19411610066578063c3f8a19414610149578063c798192214610167578063dd275e4e14610197578063ef6916e2146101c7578063efad29bf146101f75761009e565b8063244d6daa146100a35780633315770b146100d957806341c5e53e146100f557806356f6ec3f146101115780637de3afaf1461012d575b600080fd5b6100bd60048036038101906100b8919061103c565b610215565b6040516100d09796959493929190611525565b60405180910390f35b6100f360048036038101906100ee919061103c565b61031c565b005b61010f600480360381019061010a91906110a1565b6104d9565b005b61012b60048036038101906101269190610fc1565b61064b565b005b61014760048036038101906101429190611065565b61082a565b005b61015161096f565b60405161015e919061150a565b60405180910390f35b610181600480360381019061017c919061103c565b61097b565b60405161018e91906114e8565b60405180910390f35b6101b160048036038101906101ac919061103c565b610b4f565b6040516101be9190611432565b60405180910390f35b6101e160048036038101906101dc9190611142565b610b82565b6040516101ee919061150a565b60405180910390f35b6101ff610df1565b60405161020c919061150a565b60405180910390f35b6000818154811061022557600080fd5b90600052602060002090600702016000915090508060000154908060010160009054906101000a900473ffffffffffffffffffffffffffffffffffffffff16908060020180546102749061170d565b80601f01602080910402602001604051908101604052809291908181526020018280546102a09061170d565b80156102ed5780601f106102c2576101008083540402835291602001916102ed565b820191906000526020600020905b8154815290600101906020018083116102d057829003601f168201915b5050505050908060030154908060040154908060050154908060060160009054906101000a900460ff16905087565b6001600082815260200190815260200160002060009054906101000a900473ffffffffffffffffffffffffffffffffffffffff1673ffffffffffffffffffffffffffffffffffffffff163373ffffffffffffffffffffffffffffffffffffffff16146103bd576040517f08c379a00000000000000000000000000000000000000000000000000000000081526004016103b4906114a8565b60405180910390fd5b6001600082815260200190815260200160002060006101000a81549073ffffffffffffffffffffffffffffffffffffffff02191690556000818154811061042d577f4e487b7100000000000000000000000000000000000000000000000000000000600052603260045260246000fd5b90600052602060002090600702016000808201600090556001820160006101000a81549073ffffffffffffffffffffffffffffffffffffffff021916905560028201600061047b9190610df7565b6003820160009055600482016000905560058201600090556006820160006101000a81549060ff02191690555050807f4c7ab769f513d9194a2d106f30cfb9fa0bfe5b1e7152b8d56e7e9ea726d53a8260405160405180910390a250565b6001600087815260200190815260200160002060009054906101000a900473ffffffffffffffffffffffffffffffffffffffff1673ffffffffffffffffffffffffffffffffffffffff163373ffffffffffffffffffffffffffffffffffffffff161461057a576040517f08c379a0000000000000000000000000000000000000000000000000000000008152600401610571906114a8565b60405180910390fd5b60008087815481106105b5577f4e487b7100000000000000000000000000000000000000000000000000000000600052603260045260246000fd5b90600052602060002090600702019050858160020190805190602001906105dd929190610e37565b50848160030181905550838160040181905550828160050181905550818160060160006101000a81548160ff021916908315150217905550867f9edf5e3befc37c7c9499889d1e76c2d15c5762a5926519b9cd0379696d559e4760405160405180910390a250505050505050565b60006040518060e0016040528060025481526020013373ffffffffffffffffffffffffffffffffffffffff1681526020018681526020018581526020018481526020018381526020016001151581525090806001815401808255809150506001900390600052602060002090600702016000909190919091506000820151816000015560208201518160010160006101000a81548173ffffffffffffffffffffffffffffffffffffffff021916908373ffffffffffffffffffffffffffffffffffffffff1602179055506040820151816002019080519060200190610731929190610e37565b50606082015181600301556080820151816004015560a0820151816005015560c08201518160060160006101000a81548160ff02191690831515021790555050503360016000600254815260200190815260200160002060006101000a81548173ffffffffffffffffffffffffffffffffffffffff021916908373ffffffffffffffffffffffffffffffffffffffff1602179055503373ffffffffffffffffffffffffffffffffffffffff166002547f87043478aadab19100b7ffde8eb7d0f7fb1461c8d460b3f3fad9f4811669373d60405160405180910390a36002600081548092919061081f9061173f565b919050555050505050565b6001600083815260200190815260200160002060009054906101000a900473ffffffffffffffffffffffffffffffffffffffff1673ffffffffffffffffffffffffffffffffffffffff163373ffffffffffffffffffffffffffffffffffffffff16146108cb576040517f08c379a00000000000000000000000000000000000000000000000000000000081526004016108c2906114a8565b60405180910390fd5b6000808381548110610906577f4e487b7100000000000000000000000000000000000000000000000000000000600052603260045260246000fd5b90600052602060002090600702019050818160060160006101000a81548160ff021916908315150217905550827f4ad1abbe0550b02c201e09e72c3b1e9b9377fcebe25654e9b6e895c61146013583604051610962919061144d565b60405180910390a2505050565b60008080549050905090565b610983610ebd565b60008054905082106109ca576040517f08c379a00000000000000000000000000000000000000000000000000000000081526004016109c190611468565b60405180910390fd5b60008281548110610a04577f4e487b7100000000000000000000000000000000000000000000000000000000600052603260045260246000fd5b90600052602060002090600702016040518060e0016040529081600082015481526020016001820160009054906101000a900473ffffffffffffffffffffffffffffffffffffffff1673ffffffffffffffffffffffffffffffffffffffff1673ffffffffffffffffffffffffffffffffffffffff168152602001600282018054610a8d9061170d565b80601f0160208091040260200160405190810160405280929190818152602001828054610ab99061170d565b8015610b065780601f10610adb57610100808354040283529160200191610b06565b820191906000526020600020905b815481529060010190602001808311610ae957829003601f168201915b505050505081526020016003820154815260200160048201548152602001600582015481526020016006820160009054906101000a900460ff1615151515815250509050919050565b60016020528060005260406000206000915054906101000a900473ffffffffffffffffffffffffffffffffffffffff1681565b600080805490508310610bca576040517f08c379a0000000000000000000000000000000000000000000000000000000008152600401610bc190611468565b60405180910390fd5b60008211610c0d576040517f08c379a0000000000000000000000000000000000000000000000000000000008152600401610c0490611488565b60405180910390fd5b6000808481548110610c48577f4e487b7100000000000000000000000000000000000000000000000000000000600052603260045260246000fd5b90600052602060002090600702016040518060e0016040529081600082015481526020016001820160009054906101000a900473ffffffffffffffffffffffffffffffffffffffff1673ffffffffffffffffffffffffffffffffffffffff1673ffffffffffffffffffffffffffffffffffffffff168152602001600282018054610cd19061170d565b80601f0160208091040260200160405190810160405280929190818152602001828054610cfd9061170d565b8015610d4a5780601f10610d1f57610100808354040283529160200191610d4a565b820191906000526020600020905b815481529060010190602001808311610d2d57829003601f168201915b505050505081526020016003820154815260200160048201548152602001600582015481526020016006820160009054906101000a900460ff16151515158152505090508060c00151610dd2576040517f08c379a0000000000000000000000000000000000000000000000000000000008152600401610dc9906114c8565b60405180910390fd5b6000838260a00151610de49190611629565b9050809250505092915050565b60025481565b508054610e039061170d565b6000825580601f10610e155750610e34565b601f016020900490600052602060002090810190610e339190610f12565b5b50565b828054610e439061170d565b90600052602060002090601f016020900481019282610e655760008555610eac565b82601f10610e7e57805160ff1916838001178555610eac565b82800160010185558215610eac579182015b82811115610eab578251825591602001919060010190610e90565b5b509050610eb99190610f12565b5090565b6040518060e0016040528060008152602001600073ffffffffffffffffffffffffffffffffffffffff168152602001606081526020016000815260200160008152602001600081526020016000151581525090565b5b80821115610f2b576000816000905550600101610f13565b5090565b6000610f42610f3d846115cc565b61159b565b905082815260208101848484011115610f5a57600080fd5b610f658482856116cb565b509392505050565b600081359050610f7c81611826565b92915050565b600082601f830112610f9357600080fd5b8135610fa3848260208601610f2f565b91505092915050565b600081359050610fbb8161183d565b92915050565b60008060008060808587031215610fd757600080fd5b600085013567ffffffffffffffff811115610ff157600080fd5b610ffd87828801610f82565b945050602061100e87828801610fac565b935050604061101f87828801610fac565b925050606061103087828801610fac565b91505092959194509250565b60006020828403121561104e57600080fd5b600061105c84828501610fac565b91505092915050565b6000806040838503121561107857600080fd5b600061108685828601610fac565b925050602061109785828601610f6d565b9150509250929050565b60008060008060008060c087890312156110ba57600080fd5b60006110c889828a01610fac565b965050602087013567ffffffffffffffff8111156110e557600080fd5b6110f189828a01610f82565b955050604061110289828a01610fac565b945050606061111389828a01610fac565b935050608061112489828a01610fac565b92505060a061113589828a01610f6d565b9150509295509295509295565b6000806040838503121561115557600080fd5b600061116385828601610fac565b925050602061117485828601610fac565b9150509250929050565b61118781611683565b82525050565b61119681611683565b82525050565b6111a581611695565b82525050565b6111b481611695565b82525050565b60006111c5826115fc565b6111cf8185611607565b93506111df8185602086016116da565b6111e881611815565b840191505092915050565b60006111fe826115fc565b6112088185611618565b93506112188185602086016116da565b61122181611815565b840191505092915050565b6000611239601c83611618565b91507f5265736f75726365204944206973206f7574206f6620626f756e6473000000006000830152602082019050919050565b6000611279602483611618565b91507f52656e74616c20706572696f64206d757374206265206772656174657220746860008301527f616e2030000000000000000000000000000000000000000000000000000000006020830152604082019050919050565b60006112df602783611618565b91507f43616c6c6572206973206e6f7420746865206f776e6572206f6620746865207260008301527f65736f75726365000000000000000000000000000000000000000000000000006020830152604082019050919050565b6000611345601983611618565b91507f5265736f75726365206973206e6f7420617661696c61626c65000000000000006000830152602082019050919050565b600060e0830160008301516113906000860182611414565b5060208301516113a3602086018261117e565b50604083015184820360408601526113bb82826111ba565b91505060608301516113d06060860182611414565b5060808301516113e36080860182611414565b5060a08301516113f660a0860182611414565b5060c083015161140960c086018261119c565b508091505092915050565b61141d816116c1565b82525050565b61142c816116c1565b82525050565b6000602082019050611447600083018461118d565b92915050565b600060208201905061146260008301846111ab565b92915050565b600060208201905081810360008301526114818161122c565b9050919050565b600060208201905081810360008301526114a18161126c565b9050919050565b600060208201905081810360008301526114c1816112d2565b9050919050565b600060208201905081810360008301526114e181611338565b9050919050565b600060208201905081810360008301526115028184611378565b905092915050565b600060208201905061151f6000830184611423565b92915050565b600060e08201905061153a600083018a611423565b611547602083018961118d565b818103604083015261155981886111f3565b90506115686060830187611423565b6115756080830186611423565b61158260a0830185611423565b61158f60c08301846111ab565b98975050505050505050565b6000604051905081810181811067ffffffffffffffff821117156115c2576115c16117e6565b5b8060405250919050565b600067ffffffffffffffff8211156115e7576115e66117e6565b5b601f19601f8301169050602081019050919050565b600081519050919050565b600082825260208201905092915050565b600082825260208201905092915050565b6000611634826116c1565b915061163f836116c1565b9250817fffffffffffffffffffffffffffffffffffffffffffffffffffffffffffffffff048311821515161561167857611677611788565b5b828202905092915050565b600061168e826116a1565b9050919050565b60008115159050919050565b600073ffffffffffffffffffffffffffffffffffffffff82169050919050565b6000819050919050565b82818337600083830152505050565b60005b838110156116f85780820151818401526020810190506116dd565b83811115611707576000848401525b50505050565b6000600282049050600182168061172557607f821691505b60208210811415611739576117386117b7565b5b50919050565b600061174a826116c1565b91507fffffffffffffffffffffffffffffffffffffffffffffffffffffffffffffffff82141561177d5761177c611788565b5b600182019050919050565b7f4e487b7100000000000000000000000000000000000000000000000000000000600052601160045260246000fd5b7f4e487b7100000000000000000000000000000000000000000000000000000000600052602260045260246000fd5b7f4e487b7100000000000000000000000000000000000000000000000000000000600052604160045260246000fd5b6000601f19601f8301169050919050565b61182f81611695565b811461183a57600080fd5b50565b611846816116c1565b811461185157600080fd5b5056fea26469706673582212208f27b251d684621a348a9857f0ba4479298cb8eb7c292786258b6b8cfb99585064736f6c63430008000033",
  "immutableReferences": {},
  "source": "// SPDX-License-Identifier: MIT\npragma solidity ^0.8.0;\n\ncontract ResourceRegistration {\n    struct Resource {\n        uint256 id;\n        address provider;\n        string resourceType; // \"our_infrastructure\", \"user_hosted\", \"marketplace\"\n        uint256 capacity; // VRAM in GB for simplicity\n        uint256 vCPU;\n        uint256 pricePerHour; // in wei for simplicity\n        bool available;\n    }\n\n    Resource[] public resources;\n    mapping(uint256 => address) public resourceToOwner;\n    uint256 public nextResourceId = 0;\n\n    event ResourceRegistered(uint256 indexed resourceId, address indexed provider);\n    event ResourceUpdated(uint256 indexed resourceId);\n    event ResourceDeregistered(uint256 indexed resourceId);\n    event ResourceAvailabilityChanged(uint256 indexed resourceId, bool available);\n\n    // Register a new resource\n    function registerResource(string memory _resourceType, uint256 _capacity, uint256 _vCPU, uint256 _pricePerHour) public {\n        resources.push(Resource(nextResourceId, msg.sender, _resourceType, _capacity, _vCPU, _pricePerHour, true));\n        resourceToOwner[nextResourceId] = msg.sender;\n        emit ResourceRegistered(nextResourceId, msg.sender);\n        nextResourceId++;\n    }\n\n    // Update resource details\n    function updateResource(uint256 _resourceId, string memory _resourceType, uint256 _capacity, uint256 _vCPU, uint256 _pricePerHour, bool _available) public {\n        require(msg.sender == resourceToOwner[_resourceId], \"Caller is not the owner of the resource\");\n        Resource storage resource = resources[_resourceId];\n        resource.resourceType = _resourceType;\n        resource.capacity = _capacity;\n        resource.vCPU = _vCPU;\n        resource.pricePerHour = _pricePerHour;\n        resource.available = _available;\n        emit ResourceUpdated(_resourceId);\n    }\n\n    // Deregister a resource\n    function deregisterResource(uint256 _resourceId) public {\n        require(msg.sender == resourceToOwner[_resourceId], \"Caller is not the owner of the resource\");\n        delete resourceToOwner[_resourceId];\n        delete resources[_resourceId];\n        emit ResourceDeregistered(_resourceId);\n    }\n\n    // Change the availability of a resource\n    function setResourceAvailability(uint256 _resourceId, bool _available) public {\n        require(msg.sender == resourceToOwner[_resourceId], \"Caller is not the owner of the resource\");\n        Resource storage resource = resources[_resourceId];\n        resource.available = _available;\n        emit ResourceAvailabilityChanged(_resourceId, _available);\n    }\n\n    // Function to estimate the cost of renting a resource\n    function estimateRentCost(uint256 _resourceId, uint256 _hours) public view returns (uint256) {\n        require(_resourceId < resources.length, \"Resource ID is out of bounds\");\n        require(_hours > 0, \"Rental period must be greater than 0\");\n        \n        Resource memory resource = resources[_resourceId];\n        require(resource.available, \"Resource is not available\");\n\n        uint256 rentCost = resource.pricePerHour * _hours;\n        return rentCost;\n    }\n\n\n    // Helper function to get total number of resources registered\n    function getTotalResources() public view returns (uint256) {\n        return resources.length;\n    }\n\n    // Helper function to get a specific resource by id\n    function getResourceById(uint256 _resourceId) public view returns (Resource memory) {\n        require(_resourceId < resources.length, \"Resource ID is out of bounds\");\n\treturn resources[_resourceId];\n\t}\n}\n\n\n",
  "sourcePath": "/Users/lamnd09/workspace/wowai/platform-blockchain/blockchain/contracts/ResourceRegistration.sol",
  "compiler": {
    "name": "solc",
    "version": "0.8.0+commit.c7dfd78e.Emscripten.clang"
  },
  "schemaVersion": "3.4.16",
  "updatedAt": "2024-03-12T09:33:38.048Z",
  "networkType": "ethereum",
  "devdoc": {
    "kind": "dev",
    "methods": {},
    "version": 1
  },
  "userdoc": {
    "kind": "user",
    "methods": {},
    "version": 1
  }
}